:020000040000fa
:080000000001040000000000f3
:020000040000fa
:0400080004020000ee
:020000040000fa
:04000c0004020000ea
:020000040000fa
:0400100004020000e6
:020000040000fa
:0400140004020000e2
:020000040000fa
:0400180004020000de
:020000040000fa
:04001c0004020000da
:020000040000fa
:0400200004020000d6
:020000040000fa
:0400240004020000d2
:020000040000fa
:0400280004020000ce
:020000040000fa
:04002c0004020000ca
:020000040000fa
:0400300004020000c6
:020000040000fa
:0400340004020000c2
:020000040000fa
:0400380004020000be
:020000040000fa
:04003c0004020000ba
:020000040000fa
:0400400004020000b6
:020000040000fa
:0400440004020000b2
:020000040000fa
:0400480004020000ae
:020000040000fa
:04004c0004020000aa
:020000040000fa
:0400500004020000a6
:020000040000fa
:040054003403000071
:020000040000fa
:04005800040200009e
:020000040000fa
:04005c00040200009a
:020000040000fa
:040060000402000096
:020000040000fa
:040064000402000092
:020000040000fa
:04006800040200008e
:020000040000fa
:04006c00040200008a
:020000040000fa
:040070000402000086
:020000040000fa
:040074000402000082
:020000040000fa
:04007800040200007e
:020000040000fa
:04007c00040200007a
:020000040000fa
:040080000402000076
:020000040000fa
:040084000402000072
:020000040000fa
:04008800040200006e
:020000040000fa
:04008c00040200006a
:020000040000fa
:040090000402000066
:020000040000fa
:040094000402000062
:020000040000fa
:04009800040200005e
:020000040000fa
:04009c00040200005a
:020000040000fa
:0400a0000402000056
:020000040000fa
:0400a4000402000052
:020000040000fa
:0400a800040200004e
:020000040000fa
:0400ac00040200004a
:020000040000fa
:0400b0000402000046
:020000040000fa
:0400b4000402000042
:020000040000fa
:0400b800040200003e
:020000040000fa
:0400bc00040200003a
:020000040000fa
:0400c0000402000036
:020000040000fa
:0400c4000402000032
:020000040000fa
:0400c800040200002e
:020000040000fa
:0400cc00040200002a
:020000040000fa
:0400d0000402000026
:020000040000fa
:0400d4000402000022
:020000040000fa
:0400d800040200001e
:020000040000fa
:0400dc00040200001a
:020000040000fa
:0400e0000402000016
:020000040000fa
:0400e4000402000012
:020000040000fa
:0400e800040200000e
:020000040000fa
:0400ec00040200000a
:020000040000fa
:0400f0000402000006
:020000040000fa
:0400f4000402000002
:020000040000fa
:0400f80004020000fe
:020000040000fa
:0400fc0004020000fa
:020000040000fa
:0401000004020000f5
:020000040000fa
:0401040004020000f1
:020000040000fa
:0401080004020000ed
:020000040000fa
:04010c0004020000e9
:020000040000fa
:0401100004020000e5
:020000040000fa
:0401140004020000e1
:020000040000fa
:0401180004020000dd
:020000040000fa
:04011c0004020000d9
:020000040000fa
:0401200004020000d5
:020000040000fa
:0401240004020000d1
:020000040000fa
:0401280004020000cd
:020000040000fa
:04012c0004020000c9
:020000040000fa
:0401300004020000c5
:020000040000fa
:0401340004020000c1
:020000040000fa
:0401380004020000bd
:020000040000fa
:04013c0004020000b9
:020000040000fa
:0401400004020000b5
:020000040000fa
:0401440004020000b1
:020000040000fa
:0401480004020000ad
:020000040000fa
:04014c0004020000a9
:020000040000fa
:0401500004020000a5
:020000040000fa
:0401540004020000a1
:020000040000fa
:04015800040200009d
:020000040000fa
:04015c000402000099
:020000040000fa
:040160000402000095
:020000040000fa
:040164000402000091
:020000040000fa
:04016800040200008d
:020000040000fa
:04016c000402000089
:020000040000fa
:040170000402000085
:020000040000fa
:040174000402000081
:020000040000fa
:04017800040200007d
:020000040000fa
:04017c000402000079
:020000040000fa
:040180000402000075
:020000040000fa
:040184000402000071
:020000040000fa
:04018800040200006d
:020000040000fa
:04018c000402000069
:020000040000fa
:040190000402000065
:020000040000fa
:040194000402000061
:020000040000fa
:04019800040200005d
:020000040000fa
:04019c000402000059
:020000040000fa
:0401a0000402000055
:020000040000fa
:0401a4000402000051
:020000040000fa
:0401a800040200004d
:020000040000fa
:0401ac000402000049
:020000040000fa
:0401b0000402000045
:020000040000fa
:0401b4000402000041
:020000040000fa
:0401b800040200003d
:020000040000fa
:0401bc000402000039
:020000040000fa
:0401c0000402000035
:020000040000fa
:0401c4000402000031
:020000040000fa
:0401c800040200002d
:020000040000fa
:0401cc000402000029
:020000040000fa
:0401d0000402000025
:020000040000fa
:0401d4000402000021
:020000040000fa
:0401d800040200001d
:020000040000fa
:0401dc000402000019
:020000040000fa
:0401e0000402000015
:020000040000fa
:0401e4000402000011
:020000040000fa
:0401e800040200000d
:020000040000fa
:0401ec000402000009
:020000040000fa
:0401f0000402000005
:020000040000fa
:0401f4000402000001
:020000040000fa
:0401f80004020000fd
:020000040000fa
:0401fc0004020000f9
:020000040000fa
:100200000f8120000e7f24000e01880000000000f6
:10021000000020000000e000020032000001200089
:100220002002880014000700790007000000e000a9
:1002300003003a00003f20000100200002003700c8
:100240000000200001002000810f7000010032003a
:1002500014000700000020000000e000020032004f
:100260000000020000000000a803020000000000df
:100270000040da000000fe004440a9008000200099
:100280000000e00003003200002020009001880000
:100290004440a800000006008a1f78008b1f7800e9
:1002a00000000600a1028800800478000000eb0036
:1002b0001f003700e284440054a0b4009905ba003e
:1002c000e284440054a0b4009906ba00e2844400d9
:1002d00054a0b4000006eb00476fde00fd07b2003b
:1002e000ae018800636ce10003003a00eaff0700fa
:1002f0000000eb000e003700606ce10008003a00df
:10030000004deb000a05e800020039003420ec0043
:100310000af0a0008b05e900f9ff3e000400370059
:100320006168e100010032000086eb000b0007006d
:1003300019c7ba001905ba000e04e00003003a001c
:100340000a00e000dbff3a0000000600fe07b200f2
:10035000ae0288008a047800f5ff37000cd0a300b5
:10036000e20f4d001c00390089027800354dba00bb
:100370000a05e800020039003420ec000af0a00071
:100380008b05e9000f003200254dba000a05e80090
:10039000020039003420ec000af0a0008b05e900cf
:1003a000080032000c00e0000600320015cdba0053
:1003b0000a05e800020039003420ec000af0a00031
:1003c0008b05e9008984e80054a0b4000b00e0002c
:1003d000e2ff3a00000006009902ba00055d7800cd
:1003e0008b05e900f7ff3200c82ade00055d7800c2
:1003f0008b05e900f3ff32000c00e000f1ff320052
:1004000019ddba00eeff37000040da000000fe0000
:0404100000000500e3
:020000040000fa
:100414007478000000610000626300006400000062
:020000040000fa
:100424000000fa0077e6a8007fe6a90077c6a900d5
:100434007fc6a90001088000f00b20000081600045
:10044400600420007105200003102000804978001a
:100454008149780082497800a13d800000fc2f008a
:1004640000806000f000b300a03d8800113f8000d0
:1004740000f82f00008060003000b300103f8800b7
:1004840000088000000178000260a00060042000e1
:10049400710520000310200080497800814978000c
:1004a400824978009863a900c11c800090ff2f0046
:1004b40000806000c01c88009803a900700620001a
:1004c400001d8800d11c8000f0f32f000080600024
:1004d400d01c88009bc3a9009960a8009980a9003a
:1004e400a020a80061058000000027000100700022
:1004f4006005880041068000f0f82f0080806000cd
:1005040000062000010070004006880099e3a8005e
:100514009b43a8009b83a8000080fa00000006000b
:100524000200fa00004f780000000000d11c800097
:1005340000102000008060000000e000fbff32009b
:100544001e00fb00e01c880000a0260081012000a2
:10055400940007000080fa00000006000200fa0080
:10056400000f7800040037001e0078001040780067
:10057400ebff07001e0fe8001e0078001040780013
:100584000004e000f8ff3a000080fa0000000600d2
:100594000200fa00004f7800d133800000f02f00f1
:1005a400808060001e00fb0001007000d0338800d2
:1005b4007ba6a9006686a800003220000100200066
:1005c400780007006686a9000080fa000000060093
:1005d4000200fa00004f7800d133800000f02f00b1
:1005e400808060001e00fb0001007000d033880092
:1005f4007ba6a8006686a800003220000100200027
:10060400680007006686a9000080fa000000060062
:100614000000fa006286a9006206a90000f02f001b
:10062400b033880077a6a9006686a90000402f0091
:10063400110020005b00070080c3b300d4ff070053
:1006440010c0b300d2ff070000b82b000100200047
:1006540054000700c0c0b300cdff07000080fa00bb
:10066400000006003600f800809fbe00829fbe0096
:10067400849fbe00869fbe003200f8003400f8005c
:1006840010002000a00188000020200090018800b4
:100694000200fa0041048000008020000080600015
:1006a4000000e000200032000000eb00000f7800a2
:1006b4000e003700f01c80000040780000e8b7000e
:1006c4000180200091407800408020001e004000fe
:1006d400014878001e0fe80000502300c1002000ec
:1006e40030000700a02028009cff0700d01c8000d9
:1006f400610060000000e000eeff3a0000502300bb
:10070400c1002000270007004080200093ff07005d
:100714009e007800114088000000eb00000f780074
:100724009a23a9008960a9000080fa003400f90026
:100734003200f9004f03be004f02be004f01be005d
:100744004f00be003600f900004006000200fa0027
:100754006a26ef00aeff070083e0a80030ff070021
:10076400d02028007dff070020c0b30088ff0700c9
:100774000000eb00000f78000500370040802000e7
:100784001e0040001040780091ff07001e0fe80093
:10079400104080009e007800808f5000f7ff3400e6
:0407a400efff37002c
:020000040000fa
:1007a800f03fb1000180b10006003500ee030900fa
:1007b80000000000403fb1000180b100fbff3d0098
:1007c8001000b000203fb000020035000080090092
:0807d800000000000000060013
:020000040000fa
:1007e000040800000c000000800000000008000069
:0c07f00004000000800000000000000079
:020000040000fa
:020000040005f5
:045e3000faffff0076
:020000040000fa
:020000040005f5
:045e3800b6ffff00b2
:020000040000fa
:020000040005f5
:045e40009fffff00c1
:00000001FF
